:020000040000FA
:060000000A128A11ED2F27
:100C5A0083160313081088100811881183120313CE
:100C6A0008108810081188117108C4007008C300A0
:100C7A0008007E088A007F0882000A128A113E262E
:100C8A000A128A118000840A04087D0603190034B6
:100C9A00FF0A0319FE0A422E602EC730F200552EB3
:100CAA00F20B542E582E592E0130F0020030031C3C
:100CBA00F103F102602E70087104031D652E662E81
:100CCA00522E672E080002340034063400340434ED
:100CDA000034053400340134003409340034083453
:100CEA0000340A34003409340A3406340534023430
:100CFA00043401340834F401F501832E701C862E65
:100D0A00872E8D2E7208F4070318F50A7308F50763
:100D1A0001300310F20DF30DFF3E031D8E2E01303C
:100D2A000310F10CF00CFF3E031D952E70087104A0
:100D3A00031DA02EA12E832EA22E7508F100740881
:100D4A00F000A72E08000830F0000030F1000A1267
:100D5A008A112D260A128A11B22E683083120313C1
:100D6A00BC000130BD001430FC007C08BE0001301C
:100D7A000A128A112C270A128A112C30F00001302B
:100D8A00F1000A128A1151260A128A115A30831264
:100D9A000313BC000030BD001430FC007C08BE0008
:100DAA00FF300A128A11E0260A128A11B22EB22ED6
:100DBA000A128A11002883120313BF00C201683085
:100DCA00F6000130F7003D08F1003C08F000440845
:100DDA00F3004308F2000A128A1180260A128A11C5
:100DEA007108F9007008F8000A128A117A270A12A3
:100DFA008A117608FB007B0883120313C000C10125
:100E0A00242F3F0842070339FB007B08C20042082F
:100E1A00343E84000808F039831300048800FA304D
:100E2A00F0000030F1000A128A1151260A128A11C2
:100E3A000130FB007B0883120313C107242F4008EB
:100E4A004102031C292F2A2F062F2B2F0800831259
:100E5A000313BF00C201B430F6000030F7003D08AA
:100E6A00F1003C08F0004408F3004308F2000A12BB
:100E7A008A1180260A128A117108F9007008F8008E
:100E8A000A128A117A270A128A117608FB007B084D
:100E9A0083120313C000C101722F3F0842070739AA
:100EAA00FB007B08C200FA30F0000030F1000A12A1
:100EBA008A1151260A128A11831203134208FB006F
:100ECA007B07203E84000808F03983130004880059
:100EDA000130FB007B08C107722F40084102031C46
:100EEA00772F782F522F792F080083120313B90115
:100EFA00F71F802F812F892FF609F709F60A0319A0
:100F0A00F70AB901B90A892FF91F8C2F8D2F972F4C
:100F1A00F809F909F80A0319F90A0130FA007A08F6
:100F2A00B906972FBA01BB017608770403199E2FD9
:100F3A009F2FDC2FB801B80AAE2F01300310F60D2F
:100F4A00F70DFF3E031DA32F0130FA007A08B807F8
:100F5A00AE2FF71FB12FB22FA22FB42FB42F01300B
:100F6A000310BA0DBB0DFF3E031DB52F770879029A
:100F7A00031DC12F76087802031CC42FC52FCD2F5D
:100F8A007608F8027708031CF903F9023A14CD2F00
:100F9A0001300310F70CF60CFF3E031DCE2F013073
:100FAA00B802031DD92FDA2FB42FDC2FDC2F390812
:100FBA000319E02FE12FE72FBA09BB09BA0A03196F
:100FCA00BB0AE72F3B08F7003A08F600EC2F0800A7
:100FDA0083133830FD000630FE006830FF002030F1
:100FEA0084000A128A1142260A128A11FD0183011B
:060FFA000A128A11A82E64
:04400E00D4E0FFFFFC
:00000001FF
