:020000040000FA
:060000000A128A11ED2F27
:100CE4008316031308108810081188118312031344
:100CF40008108810081188117108C4007008C30016
:100D040008007E088A007F0882000A128A1183265E
:100D14000A128A118000840A04087D06031900342B
:100D2400FF0A0319FE0A872EA52EC730F2009A2E59
:100D3400F20B992E9D2E9E2E0130F0020030031CE2
:100D4400F103F102A52E70087104031DAA2EAB2E27
:100D5400972EAC2E080002340034063400340434D8
:100D640000340534003401340034093400340834C8
:100D740000340A34003409340A34063405340234A5
:100D8400043401340834F401F501C82E701CCB2E50
:100D9400CC2ED22E7208F4070318F50A7308F5074F
:100DA40001300310F20DF30DFF3E031DD32E01306D
:100DB4000310F10CF00CFF3E031DDA2E70087104D1
:100DC400031DE52EE62EC82EE72E7508F1007408E3
:100DD400F000EC2E08000830F0000030F1000A1298
:100DE4008A1172260A128A11F72E683083120313AD
:100DF400BC000130BD001430FC007C08BE00FF3094
:100E04000A128A112E270A128A112C30F00001309E
:100E1400F1000A128A1196260A128A116830831286
:100E24000313BC000130BD001430FC007C08BE007C
:100E340001300A128A112E270A128A11F72EF72E70
:100E4400B830F0000B30F1000A128A1196260A120B
:100E54008A110A128A11002883120313BF00C201E7
:100E64006830F6000130F7003D08F1003C08F0005E
:100E74004408F3004308F2000A128A11C5260A1234
:100E84008A117108F9007008F8000A128A117A2789
:100E94000A128A117608FB007B0883120313C00030
:100EA400C101722F4208343E84000808F0398313CC
:100EB40000048800FA30F0000030F1000A128A11B0
:100EC40096260A128A11831203133F084207033934
:100ED400FB007B08C2000130FB007B08C107722FB6
:100EE40040084102031C772F782F542F792F0800D4
:100EF40083120313B901F71F802F812F892FF6095D
:100F0400F709F60A0319F70AB901B90A892FF91F73
:100F14008C2F8D2F972FF809F909F80A0319F90A6C
:100F24000130FA007A08B906972FBA01BB01760896
:100F3400770403199E2F9F2FDC2FB801B80AAE2F18
:100F440001300310F60DF70DFF3E031DA32F0130F2
:100F5400FA007A08B807AE2FF71FB12FB22FA22FCD
:100F6400B42FB42F01300310BA0DBB0DFF3E031D87
:100F7400B52F77087902031DC12F76087802031C68
:100F8400C42FC52FCD2F7608F8027708031CF90368
:100F9400F9023A14CD2F01300310F70CF60CFF3E82
:100FA400031DCE2F0130B802031DD92FDA2FB42F21
:100FB400DC2FDC2F39080319E02FE12FE72FBA09C2
:100FC400BB09BA0A0319BB0AE72F3B08F7003A0822
:100FD400F600EC2F080083133830FD000630FE00C5
:100FE400AD30FF00203084000A128A1187260A12CD
:0C0FF4008A11FD0183010A128A11ED2E02
:04400E00D4E0FFFFFC
:00000001FF
