:020000040000FA
:060000000A128A11D72F3D
:100CD8000234043401340834103400348316031306
:100CE800081088100811881183120313081088103F
:100CF800081188117108B2007008B1000800922E1E
:100D0800C730F200872EF20B862E8A2E8B2E0130EA
:100D1800F0020030031CF103F102922E70087104F6
:100D2800031D972E982E842E992E0800F401F501A4
:100D38009D2E701CA02EA12EA72E7208F407031852
:100D4800F50A7308F50701300310F20DF30DFF3EA5
:100D5800031DA82E01300310F10CF00CFF3E031DFB
:100D6800AF2E70087104031DBA2EBB2E9D2EBC2E0B
:100D78007508F1007408F000C12E08006430F00016
:100D88000030F1000A128A1172260A128A11B8304C
:100D9800F0000B30F1000A128A1183260A128A1118
:100DA800D52E5A3083120313A4000030A5006430F6
:100DB800A6000030A70001300A128A110C270A1277
:100DC8008A11B830F0000B30F1000A128A1183261C
:100DD8000A128A11B43083120313A4000030A5004C
:100DE8001430A6000030A700FF300A128A110C2721
:100DF8000A128A11B830F0000B30F1000A128A1179
:100E080083260A128A11D52ED52E0A128A11002895
:100E180083120313AA006830F6000130F700250892
:100E2800F1002408F0003208F3003108F2000A1239
:100E38008A119A260A128A117108F9007008F800B6
:100E48000A128A1164270A128A1177088312031377
:100E5800A9007608A800AB01AC01542F8312031334
:100E680033082D3E84000808F039831300048800F5
:100E78002A0833070339FB007B08B300FA30F00077
:100E88000030F1000A128A1183260A128A110130F1
:100E980083120313AB070318AC0A0030AC07542FB6
:100EA8002C08803AFB002908803A7B02031D5E2F3C
:100EB80028082B02031C612F622F322F632F080092
:100EC80083120313A101F71F6A2F6B2F732FF609E3
:100ED800F709F60A0319F70AA101A10A732FF91FE6
:100EE800762F772F812FF809F909F80A0319F90ADB
:100EF8000130FA007A08A106812FA201A301760821
:100F080077040319882F892FC62FA001A00A982FCC
:100F180001300310F60DF70DFF3E031D8D2F013034
:100F2800FA007A08A007982FF71F9B2F9C2F8C2F69
:100F38009E2F9E2F01300310A20DA30DFF3E031D0F
:100F48009F2F77087902031DAB2F76087802031CC0
:100F5800AE2FAF2FB72F7608F8027708031CF903D6
:100F6800F9022214B72F01300310F70CF60CFF3EDC
:100F7800031DB82F0130A002031DC32FC42F9E2FBD
:100F8800C62FC62F21080319CA2FCB2FD12FA2098C
:100F9800A309A20A0319A30AD12F2308F7002208DC
:100FA800F600D62F08000A128A116C260A128A1136
:100FB800AD000A128A116D260A128A11AE000A12B1
:100FC8008A116E260A128A11AF000A128A116F2638
:100FD8000A128A11B0000A128A1170260A128A119E
:100FE800B1000A128A1171260A128A11B200B301DD
:080FF80083010A128A11C22EC6
:04400E00D4E0FFFFFC
:00000001FF
